{
  "_format": "hh-sol-artifact-1",
  "contractName": "Staking",
  "sourceName": "contracts/Staking.sol",
  "abi": [
    {
      "inputs": [],
      "stateMutability": "nonpayable",
      "type": "constructor"
    },
    {
      "anonymous": false,
      "inputs": [
        {
          "indexed": true,
          "internalType": "address",
          "name": "owner",
          "type": "address"
        },
        {
          "indexed": true,
          "internalType": "address",
          "name": "spender",
          "type": "address"
        },
        {
          "indexed": false,
          "internalType": "uint256",
          "name": "value",
          "type": "uint256"
        }
      ],
      "name": "Approval",
      "type": "event"
    },
    {
      "anonymous": false,
      "inputs": [
        {
          "indexed": true,
          "internalType": "address",
          "name": "previousOwner",
          "type": "address"
        },
        {
          "indexed": true,
          "internalType": "address",
          "name": "newOwner",
          "type": "address"
        }
      ],
      "name": "OwnershipTransferred",
      "type": "event"
    },
    {
      "anonymous": false,
      "inputs": [
        {
          "indexed": true,
          "internalType": "address",
          "name": "from",
          "type": "address"
        },
        {
          "indexed": true,
          "internalType": "address",
          "name": "to",
          "type": "address"
        },
        {
          "indexed": false,
          "internalType": "uint256",
          "name": "value",
          "type": "uint256"
        }
      ],
      "name": "Transfer",
      "type": "event"
    },
    {
      "inputs": [
        {
          "internalType": "address",
          "name": "owner",
          "type": "address"
        },
        {
          "internalType": "address",
          "name": "spender",
          "type": "address"
        }
      ],
      "name": "allowance",
      "outputs": [
        {
          "internalType": "uint256",
          "name": "",
          "type": "uint256"
        }
      ],
      "stateMutability": "view",
      "type": "function"
    },
    {
      "inputs": [
        {
          "internalType": "address",
          "name": "spender",
          "type": "address"
        },
        {
          "internalType": "uint256",
          "name": "amount",
          "type": "uint256"
        }
      ],
      "name": "approve",
      "outputs": [
        {
          "internalType": "bool",
          "name": "",
          "type": "bool"
        }
      ],
      "stateMutability": "nonpayable",
      "type": "function"
    },
    {
      "inputs": [
        {
          "internalType": "address",
          "name": "account",
          "type": "address"
        }
      ],
      "name": "balanceOf",
      "outputs": [
        {
          "internalType": "uint256",
          "name": "",
          "type": "uint256"
        }
      ],
      "stateMutability": "view",
      "type": "function"
    },
    {
      "inputs": [],
      "name": "checkContractBalance",
      "outputs": [
        {
          "internalType": "uint256",
          "name": "bal",
          "type": "uint256"
        }
      ],
      "stateMutability": "view",
      "type": "function"
    },
    {
      "inputs": [],
      "name": "decimals",
      "outputs": [
        {
          "internalType": "uint8",
          "name": "",
          "type": "uint8"
        }
      ],
      "stateMutability": "view",
      "type": "function"
    },
    {
      "inputs": [
        {
          "internalType": "address",
          "name": "spender",
          "type": "address"
        },
        {
          "internalType": "uint256",
          "name": "subtractedValue",
          "type": "uint256"
        }
      ],
      "name": "decreaseAllowance",
      "outputs": [
        {
          "internalType": "bool",
          "name": "",
          "type": "bool"
        }
      ],
      "stateMutability": "nonpayable",
      "type": "function"
    },
    {
      "inputs": [
        {
          "internalType": "address",
          "name": "spender",
          "type": "address"
        },
        {
          "internalType": "uint256",
          "name": "addedValue",
          "type": "uint256"
        }
      ],
      "name": "increaseAllowance",
      "outputs": [
        {
          "internalType": "bool",
          "name": "",
          "type": "bool"
        }
      ],
      "stateMutability": "nonpayable",
      "type": "function"
    },
    {
      "inputs": [],
      "name": "maxTotalSupply",
      "outputs": [
        {
          "internalType": "uint256",
          "name": "",
          "type": "uint256"
        }
      ],
      "stateMutability": "view",
      "type": "function"
    },
    {
      "inputs": [
        {
          "internalType": "uint256",
          "name": "_amount",
          "type": "uint256"
        }
      ],
      "name": "mint",
      "outputs": [],
      "stateMutability": "nonpayable",
      "type": "function"
    },
    {
      "inputs": [],
      "name": "name",
      "outputs": [
        {
          "internalType": "string",
          "name": "",
          "type": "string"
        }
      ],
      "stateMutability": "view",
      "type": "function"
    },
    {
      "inputs": [],
      "name": "owner",
      "outputs": [
        {
          "internalType": "address",
          "name": "",
          "type": "address"
        }
      ],
      "stateMutability": "view",
      "type": "function"
    },
    {
      "inputs": [],
      "name": "renounceOwnership",
      "outputs": [],
      "stateMutability": "nonpayable",
      "type": "function"
    },
    {
      "inputs": [],
      "name": "showCalculatedAPY",
      "outputs": [
        {
          "internalType": "uint256",
          "name": "apy",
          "type": "uint256"
        }
      ],
      "stateMutability": "view",
      "type": "function"
    },
    {
      "inputs": [
        {
          "internalType": "uint256",
          "name": "_days",
          "type": "uint256"
        }
      ],
      "name": "stake",
      "outputs": [],
      "stateMutability": "payable",
      "type": "function"
    },
    {
      "inputs": [],
      "name": "symbol",
      "outputs": [
        {
          "internalType": "string",
          "name": "",
          "type": "string"
        }
      ],
      "stateMutability": "view",
      "type": "function"
    },
    {
      "inputs": [],
      "name": "tokenPerPost",
      "outputs": [
        {
          "internalType": "uint256",
          "name": "",
          "type": "uint256"
        }
      ],
      "stateMutability": "view",
      "type": "function"
    },
    {
      "inputs": [],
      "name": "totalSupply",
      "outputs": [
        {
          "internalType": "uint256",
          "name": "",
          "type": "uint256"
        }
      ],
      "stateMutability": "view",
      "type": "function"
    },
    {
      "inputs": [
        {
          "internalType": "address",
          "name": "to",
          "type": "address"
        },
        {
          "internalType": "uint256",
          "name": "amount",
          "type": "uint256"
        }
      ],
      "name": "transfer",
      "outputs": [
        {
          "internalType": "bool",
          "name": "",
          "type": "bool"
        }
      ],
      "stateMutability": "nonpayable",
      "type": "function"
    },
    {
      "inputs": [
        {
          "internalType": "address",
          "name": "from",
          "type": "address"
        },
        {
          "internalType": "address",
          "name": "to",
          "type": "address"
        },
        {
          "internalType": "uint256",
          "name": "amount",
          "type": "uint256"
        }
      ],
      "name": "transferFrom",
      "outputs": [
        {
          "internalType": "bool",
          "name": "",
          "type": "bool"
        }
      ],
      "stateMutability": "nonpayable",
      "type": "function"
    },
    {
      "inputs": [
        {
          "internalType": "address",
          "name": "newOwner",
          "type": "address"
        }
      ],
      "name": "transferOwnership",
      "outputs": [],
      "stateMutability": "nonpayable",
      "type": "function"
    },
    {
      "inputs": [
        {
          "internalType": "uint256",
          "name": "_amount",
          "type": "uint256"
        }
      ],
      "name": "withFromContract",
      "outputs": [],
      "stateMutability": "nonpayable",
      "type": "function"
    },
    {
      "inputs": [],
      "name": "withdraw",
      "outputs": [],
      "stateMutability": "nonpayable",
      "type": "function"
    },
    {
      "stateMutability": "payable",
      "type": "receive"
    }
  ],
  "bytecode": "0x60806040523480156200001157600080fd5b506040518060400160405280600981526020017f446567656e2047617300000000000000000000000000000000000000000000008152506040518060400160405280600381526020017f4445470000000000000000000000000000000000000000000000000000000000815250816003908051906020019062000096929190620001e7565b508060049080519060200190620000af929190620001e7565b505050620000d2620000c66200011960201b60201c565b6200012160201b60201c565b33600760006101000a81548173ffffffffffffffffffffffffffffffffffffffff021916908373ffffffffffffffffffffffffffffffffffffffff160217905550620002fc565b600033905090565b6000600560009054906101000a900473ffffffffffffffffffffffffffffffffffffffff16905081600560006101000a81548173ffffffffffffffffffffffffffffffffffffffff021916908373ffffffffffffffffffffffffffffffffffffffff1602179055508173ffffffffffffffffffffffffffffffffffffffff168173ffffffffffffffffffffffffffffffffffffffff167f8be0079c531659141344cd1fd0a4f28419497f9722a3daafe3b4186f6b6457e060405160405180910390a35050565b828054620001f590620002c6565b90600052602060002090601f01602090048101928262000219576000855562000265565b82601f106200023457805160ff191683800117855562000265565b8280016001018555821562000265579182015b828111156200026457825182559160200191906001019062000247565b5b50905062000274919062000278565b5090565b5b808211156200029357600081600090555060010162000279565b5090565b7f4e487b7100000000000000000000000000000000000000000000000000000000600052602260045260246000fd5b60006002820490506001821680620002df57607f821691505b60208210811415620002f657620002f562000297565b5b50919050565b61230c806200030c6000396000f3fe6080604052600436106101395760003560e01c8063715018a6116100ab578063a694fc3a1161006f578063a694fc3a14610425578063a9059cbb14610441578063c54b4ee31461047e578063dd62ed3e146104a9578063efea496f146104e6578063f2fde38b1461050f57610140565b8063715018a6146103525780638da5cb5b1461036957806395d89b4114610394578063a0712d68146103bf578063a457c2d7146103e857610140565b8063313ce567116100fd578063313ce56714610240578063395093511461026b5780633ccfd60b146102a857806350312c9e146102bf5780636889c908146102ea57806370a082311461031557610140565b806306fdde0314610145578063095ea7b31461017057806318160ddd146101ad57806323b872dd146101d85780632ab4d0521461021557610140565b3661014057005b600080fd5b34801561015157600080fd5b5061015a610538565b604051610167919061169d565b60405180910390f35b34801561017c57600080fd5b5061019760048036038101906101929190611758565b6105ca565b6040516101a491906117b3565b60405180910390f35b3480156101b957600080fd5b506101c26105ed565b6040516101cf91906117dd565b60405180910390f35b3480156101e457600080fd5b506101ff60048036038101906101fa91906117f8565b6105f7565b60405161020c91906117b3565b60405180910390f35b34801561022157600080fd5b5061022a610626565b60405161023791906117dd565b60405180910390f35b34801561024c57600080fd5b50610255610635565b6040516102629190611867565b60405180910390f35b34801561027757600080fd5b50610292600480360381019061028d9190611758565b61063e565b60405161029f91906117b3565b60405180910390f35b3480156102b457600080fd5b506102bd610675565b005b3480156102cb57600080fd5b506102d46108d7565b6040516102e191906117dd565b60405180910390f35b3480156102f657600080fd5b506102ff6108df565b60405161030c91906117dd565b60405180910390f35b34801561032157600080fd5b5061033c60048036038101906103379190611882565b610952565b60405161034991906117dd565b60405180910390f35b34801561035e57600080fd5b5061036761099a565b005b34801561037557600080fd5b5061037e6109ae565b60405161038b91906118be565b60405180910390f35b3480156103a057600080fd5b506103a96109d8565b6040516103b6919061169d565b60405180910390f35b3480156103cb57600080fd5b506103e660048036038101906103e191906118d9565b610a6a565b005b3480156103f457600080fd5b5061040f600480360381019061040a9190611758565b610a77565b60405161041c91906117b3565b60405180910390f35b61043f600480360381019061043a91906118d9565b610aee565b005b34801561044d57600080fd5b5061046860048036038101906104639190611758565b610c19565b60405161047591906117b3565b60405180910390f35b34801561048a57600080fd5b50610493610c3c565b6040516104a091906117dd565b60405180910390f35b3480156104b557600080fd5b506104d060048036038101906104cb9190611906565b610c48565b6040516104dd91906117dd565b60405180910390f35b3480156104f257600080fd5b5061050d600480360381019061050891906118d9565b610ccf565b005b34801561051b57600080fd5b5061053660048036038101906105319190611882565b610dcb565b005b60606003805461054790611975565b80601f016020809104026020016040519081016040528092919081815260200182805461057390611975565b80156105c05780601f10610595576101008083540402835291602001916105c0565b820191906000526020600020905b8154815290600101906020018083116105a357829003601f168201915b5050505050905090565b6000806105d5610e4f565b90506105e2818585610e57565b600191505092915050565b6000600254905090565b600080610602610e4f565b905061060f858285611022565b61061a8585856110ae565b60019150509392505050565b6a084595161401484a00000081565b60006012905090565b600080610649610e4f565b905061066a81858561065b8589610c48565b61066591906119d6565b610e57565b600191505092915050565b6000600660003373ffffffffffffffffffffffffffffffffffffffff1673ffffffffffffffffffffffffffffffffffffffff1681526020019081526020016000206040518060600160405290816000820154815260200160018201548152602001600282015481525050905080602001514211610727576040517f08c379a000000000000000000000000000000000000000000000000000000000815260040161071e90611a78565b60405180910390fd5b600081600001511161076e576040517f08c379a000000000000000000000000000000000000000000000000000000000815260040161076590611ae4565b60405180910390fd5b806000015161077c33610952565b10156107bd576040517f08c379a00000000000000000000000000000000000000000000000000000000081526004016107b490611b50565b60405180910390fd5b60006107d682602001518360000151846040015161132f565b905060008183600001516107ea91906119d6565b90506000600660003373ffffffffffffffffffffffffffffffffffffffff1673ffffffffffffffffffffffffffffffffffffffff168152602001908152602001600020600001819055506000600660003373ffffffffffffffffffffffffffffffffffffffff1673ffffffffffffffffffffffffffffffffffffffff1681526020019081526020016000206001018190555061088b333085600001516110ae565b3373ffffffffffffffffffffffffffffffffffffffff166108fc829081150290604051600060405180830381858888f193505050501580156108d1573d6000803e3d6000fd5b50505050565b600047905090565b600080600660003373ffffffffffffffffffffffffffffffffffffffff1673ffffffffffffffffffffffffffffffffffffffff16815260200190815260200160002090506000816002015482600101546109399190611b9f565b905081600001548161094b9190611bd0565b9250505090565b60008060008373ffffffffffffffffffffffffffffffffffffffff1673ffffffffffffffffffffffffffffffffffffffff168152602001908152602001600020549050919050565b6109a2611356565b6109ac60006113d4565b565b6000600560009054906101000a900473ffffffffffffffffffffffffffffffffffffffff16905090565b6060600480546109e790611975565b80601f0160208091040260200160405190810160405280929190818152602001828054610a1390611975565b8015610a605780601f10610a3557610100808354040283529160200191610a60565b820191906000526020600020905b815481529060010190602001808311610a4357829003601f168201915b5050505050905090565b610a74338261149a565b50565b600080610a82610e4f565b90506000610a908286610c48565b905083811015610ad5576040517f08c379a0000000000000000000000000000000000000000000000000000000008152600401610acc90611c9c565b60405180910390fd5b610ae28286868403610e57565b60019250505092915050565b60003411610b31576040517f08c379a0000000000000000000000000000000000000000000000000000000008152600401610b2890611d08565b60405180910390fd5b60008111610b74576040517f08c379a0000000000000000000000000000000000000000000000000000000008152600401610b6b90611d9a565b60405180910390fd5b6000600660003373ffffffffffffffffffffffffffffffffffffffff1673ffffffffffffffffffffffffffffffffffffffff168152602001908152602001600020905034816000016000828254610bcb91906119d6565b925050819055506201518082610be19190611bd0565b42610bec91906119d6565b81600101819055506301e1338042610c0491906119d6565b8160020181905550610c1534610a6a565b5050565b600080610c24610e4f565b9050610c318185856110ae565b600191505092915050565b671bc16d674ec8000081565b6000600160008473ffffffffffffffffffffffffffffffffffffffff1673ffffffffffffffffffffffffffffffffffffffff16815260200190815260200160002060008373ffffffffffffffffffffffffffffffffffffffff1673ffffffffffffffffffffffffffffffffffffffff16815260200190815260200160002054905092915050565b600760009054906101000a900473ffffffffffffffffffffffffffffffffffffffff1673ffffffffffffffffffffffffffffffffffffffff163373ffffffffffffffffffffffffffffffffffffffff1614610d5f576040517f08c379a0000000000000000000000000000000000000000000000000000000008152600401610d5690611e06565b60405180910390fd5b600760009054906101000a900473ffffffffffffffffffffffffffffffffffffffff1673ffffffffffffffffffffffffffffffffffffffff166108fc829081150290604051600060405180830381858888f19350505050158015610dc7573d6000803e3d6000fd5b5050565b610dd3611356565b600073ffffffffffffffffffffffffffffffffffffffff168173ffffffffffffffffffffffffffffffffffffffff161415610e43576040517f08c379a0000000000000000000000000000000000000000000000000000000008152600401610e3a90611e98565b60405180910390fd5b610e4c816113d4565b50565b600033905090565b600073ffffffffffffffffffffffffffffffffffffffff168373ffffffffffffffffffffffffffffffffffffffff161415610ec7576040517f08c379a0000000000000000000000000000000000000000000000000000000008152600401610ebe90611f2a565b60405180910390fd5b600073ffffffffffffffffffffffffffffffffffffffff168273ffffffffffffffffffffffffffffffffffffffff161415610f37576040517f08c379a0000000000000000000000000000000000000000000000000000000008152600401610f2e90611fbc565b60405180910390fd5b80600160008573ffffffffffffffffffffffffffffffffffffffff1673ffffffffffffffffffffffffffffffffffffffff16815260200190815260200160002060008473ffffffffffffffffffffffffffffffffffffffff1673ffffffffffffffffffffffffffffffffffffffff168152602001908152602001600020819055508173ffffffffffffffffffffffffffffffffffffffff168373ffffffffffffffffffffffffffffffffffffffff167f8c5be1e5ebec7d5bd14f71427d1e84f3dd0314c0f7b2291e5b200ac8c7c3b9258360405161101591906117dd565b60405180910390a3505050565b600061102e8484610c48565b90507fffffffffffffffffffffffffffffffffffffffffffffffffffffffffffffffff81146110a8578181101561109a576040517f08c379a000000000000000000000000000000000000000000000000000000000815260040161109190612028565b60405180910390fd5b6110a78484848403610e57565b5b50505050565b600073ffffffffffffffffffffffffffffffffffffffff168373ffffffffffffffffffffffffffffffffffffffff16141561111e576040517f08c379a0000000000000000000000000000000000000000000000000000000008152600401611115906120ba565b60405180910390fd5b600073ffffffffffffffffffffffffffffffffffffffff168273ffffffffffffffffffffffffffffffffffffffff16141561118e576040517f08c379a00000000000000000000000000000000000000000000000000000000081526004016111859061214c565b60405180910390fd5b6111998383836115fa565b60008060008573ffffffffffffffffffffffffffffffffffffffff1673ffffffffffffffffffffffffffffffffffffffff1681526020019081526020016000205490508181101561121f576040517f08c379a0000000000000000000000000000000000000000000000000000000008152600401611216906121de565b60405180910390fd5b8181036000808673ffffffffffffffffffffffffffffffffffffffff1673ffffffffffffffffffffffffffffffffffffffff16815260200190815260200160002081905550816000808573ffffffffffffffffffffffffffffffffffffffff1673ffffffffffffffffffffffffffffffffffffffff16815260200190815260200160002060008282546112b291906119d6565b925050819055508273ffffffffffffffffffffffffffffffffffffffff168473ffffffffffffffffffffffffffffffffffffffff167fddf252ad1be2c89b69c2b068fc378daa952ba7f163c4a11628f55a4df523b3ef8460405161131691906117dd565b60405180910390a36113298484846115ff565b50505050565b600080828561133e9190611b9f565b9050838161134c9190611bd0565b9150509392505050565b61135e610e4f565b73ffffffffffffffffffffffffffffffffffffffff1661137c6109ae565b73ffffffffffffffffffffffffffffffffffffffff16146113d2576040517f08c379a00000000000000000000000000000000000000000000000000000000081526004016113c99061224a565b60405180910390fd5b565b6000600560009054906101000a900473ffffffffffffffffffffffffffffffffffffffff16905081600560006101000a81548173ffffffffffffffffffffffffffffffffffffffff021916908373ffffffffffffffffffffffffffffffffffffffff1602179055508173ffffffffffffffffffffffffffffffffffffffff168173ffffffffffffffffffffffffffffffffffffffff167f8be0079c531659141344cd1fd0a4f28419497f9722a3daafe3b4186f6b6457e060405160405180910390a35050565b600073ffffffffffffffffffffffffffffffffffffffff168273ffffffffffffffffffffffffffffffffffffffff16141561150a576040517f08c379a0000000000000000000000000000000000000000000000000000000008152600401611501906122b6565b60405180910390fd5b611516600083836115fa565b806002600082825461152891906119d6565b92505081905550806000808473ffffffffffffffffffffffffffffffffffffffff1673ffffffffffffffffffffffffffffffffffffffff168152602001908152602001600020600082825461157d91906119d6565b925050819055508173ffffffffffffffffffffffffffffffffffffffff16600073ffffffffffffffffffffffffffffffffffffffff167fddf252ad1be2c89b69c2b068fc378daa952ba7f163c4a11628f55a4df523b3ef836040516115e291906117dd565b60405180910390a36115f6600083836115ff565b5050565b505050565b505050565b600081519050919050565b600082825260208201905092915050565b60005b8381101561163e578082015181840152602081019050611623565b8381111561164d576000848401525b50505050565b6000601f19601f8301169050919050565b600061166f82611604565b611679818561160f565b9350611689818560208601611620565b61169281611653565b840191505092915050565b600060208201905081810360008301526116b78184611664565b905092915050565b600080fd5b600073ffffffffffffffffffffffffffffffffffffffff82169050919050565b60006116ef826116c4565b9050919050565b6116ff816116e4565b811461170a57600080fd5b50565b60008135905061171c816116f6565b92915050565b6000819050919050565b61173581611722565b811461174057600080fd5b50565b6000813590506117528161172c565b92915050565b6000806040838503121561176f5761176e6116bf565b5b600061177d8582860161170d565b925050602061178e85828601611743565b9150509250929050565b60008115159050919050565b6117ad81611798565b82525050565b60006020820190506117c860008301846117a4565b92915050565b6117d781611722565b82525050565b60006020820190506117f260008301846117ce565b92915050565b600080600060608486031215611811576118106116bf565b5b600061181f8682870161170d565b93505060206118308682870161170d565b925050604061184186828701611743565b9150509250925092565b600060ff82169050919050565b6118618161184b565b82525050565b600060208201905061187c6000830184611858565b92915050565b600060208284031215611898576118976116bf565b5b60006118a68482850161170d565b91505092915050565b6118b8816116e4565b82525050565b60006020820190506118d360008301846118af565b92915050565b6000602082840312156118ef576118ee6116bf565b5b60006118fd84828501611743565b91505092915050565b6000806040838503121561191d5761191c6116bf565b5b600061192b8582860161170d565b925050602061193c8582860161170d565b9150509250929050565b7f4e487b7100000000000000000000000000000000000000000000000000000000600052602260045260246000fd5b6000600282049050600182168061198d57607f821691505b602082108114156119a1576119a0611946565b5b50919050565b7f4e487b7100000000000000000000000000000000000000000000000000000000600052601160045260246000fd5b60006119e182611722565b91506119ec83611722565b9250827fffffffffffffffffffffffffffffffffffffffffffffffffffffffffffffffff03821115611a2157611a206119a7565b5b828201905092915050565b7f7374616b696e6720706572696f64206e6f742072656163686564000000000000600082015250565b6000611a62601a8361160f565b9150611a6d82611a2c565b602082019050919050565b60006020820190508181036000830152611a9181611a55565b9050919050565b7f796f7520646f6e277420686176652061207374616b6500000000000000000000600082015250565b6000611ace60168361160f565b9150611ad982611a98565b602082019050919050565b60006020820190508181036000830152611afd81611ac1565b9050919050565b7f706c616365686f6c64657220746f6b656e206e6f7420656e6f75676800000000600082015250565b6000611b3a601c8361160f565b9150611b4582611b04565b602082019050919050565b60006020820190508181036000830152611b6981611b2d565b9050919050565b7f4e487b7100000000000000000000000000000000000000000000000000000000600052601260045260246000fd5b6000611baa82611722565b9150611bb583611722565b925082611bc557611bc4611b70565b5b828204905092915050565b6000611bdb82611722565b9150611be683611722565b9250817fffffffffffffffffffffffffffffffffffffffffffffffffffffffffffffffff0483118215151615611c1f57611c1e6119a7565b5b828202905092915050565b7f45524332303a2064656372656173656420616c6c6f77616e63652062656c6f7760008201527f207a65726f000000000000000000000000000000000000000000000000000000602082015250565b6000611c8660258361160f565b9150611c9182611c2a565b604082019050919050565b60006020820190508181036000830152611cb581611c79565b9050919050565b7f596f752063616e2774207374616b65207a65726f2076616c7565000000000000600082015250565b6000611cf2601a8361160f565b9150611cfd82611cbc565b602082019050919050565b60006020820190508181036000830152611d2181611ce5565b9050919050565b7f7374616b696e6720706572696f642063616e2774206265206c6573732074686160008201527f6e20302064617973000000000000000000000000000000000000000000000000602082015250565b6000611d8460288361160f565b9150611d8f82611d28565b604082019050919050565b60006020820190508181036000830152611db381611d77565b9050919050565b7f6e6f74206f776e65720000000000000000000000000000000000000000000000600082015250565b6000611df060098361160f565b9150611dfb82611dba565b602082019050919050565b60006020820190508181036000830152611e1f81611de3565b9050919050565b7f4f776e61626c653a206e6577206f776e657220697320746865207a65726f206160008201527f6464726573730000000000000000000000000000000000000000000000000000602082015250565b6000611e8260268361160f565b9150611e8d82611e26565b604082019050919050565b60006020820190508181036000830152611eb181611e75565b9050919050565b7f45524332303a20617070726f76652066726f6d20746865207a65726f2061646460008201527f7265737300000000000000000000000000000000000000000000000000000000602082015250565b6000611f1460248361160f565b9150611f1f82611eb8565b604082019050919050565b60006020820190508181036000830152611f4381611f07565b9050919050565b7f45524332303a20617070726f766520746f20746865207a65726f20616464726560008201527f7373000000000000000000000000000000000000000000000000000000000000602082015250565b6000611fa660228361160f565b9150611fb182611f4a565b604082019050919050565b60006020820190508181036000830152611fd581611f99565b9050919050565b7f45524332303a20696e73756666696369656e7420616c6c6f77616e6365000000600082015250565b6000612012601d8361160f565b915061201d82611fdc565b602082019050919050565b6000602082019050818103600083015261204181612005565b9050919050565b7f45524332303a207472616e736665722066726f6d20746865207a65726f20616460008201527f6472657373000000000000000000000000000000000000000000000000000000602082015250565b60006120a460258361160f565b91506120af82612048565b604082019050919050565b600060208201905081810360008301526120d381612097565b9050919050565b7f45524332303a207472616e7366657220746f20746865207a65726f206164647260008201527f6573730000000000000000000000000000000000000000000000000000000000602082015250565b600061213660238361160f565b9150612141826120da565b604082019050919050565b6000602082019050818103600083015261216581612129565b9050919050565b7f45524332303a207472616e7366657220616d6f756e742065786365656473206260008201527f616c616e63650000000000000000000000000000000000000000000000000000602082015250565b60006121c860268361160f565b91506121d38261216c565b604082019050919050565b600060208201905081810360008301526121f7816121bb565b9050919050565b7f4f776e61626c653a2063616c6c6572206973206e6f7420746865206f776e6572600082015250565b600061223460208361160f565b915061223f826121fe565b602082019050919050565b6000602082019050818103600083015261226381612227565b9050919050565b7f45524332303a206d696e7420746f20746865207a65726f206164647265737300600082015250565b60006122a0601f8361160f565b91506122ab8261226a565b602082019050919050565b600060208201905081810360008301526122cf81612293565b905091905056fea2646970667358221220534721c3bc669367dfafd239aa439c8096bd82de56621d58244fbc3d1dec79c664736f6c63430008090033",
  "linkReferences": {},
  "deployedLinkReferences": {}
}